:1000000018C1000047C1000045C1000043C1000005
:1000100041C100003FC100003DC100003BC10000E4
:1000200039C1000037C1000035C1000033C10000F4
:1000300031C100002FC100002DC100002BC1000004
:1000400029C1000027C1000025C1000023C1000014
:1000500021C100001FC100001DC100000C94AA2195
:1000600019C100000C9431250C94672513C10000C0
:1000700011C100000FC100000DC100000BC1000044
:1000800009C1000007C1000005C1000003C1000054
:1000900001C10000FFC00000FDC000000C94401E24
:1000A000F9C00000F7C00000F5C00000F3C0000078
:1000B000F1C00000EFC00000EDC00000EBC0000088
:1000C000E9C00000E7C00000E5C000000C94DC259A
:1000D0000C941226DFC00000DDC00000DBC0000071
:1000E000D9C00000F222F522E422E822EE222C23DD
:1000F000F922FD22032307230B23112315231923A0
:100100002C231F232323272300000A0B02090C0D95
:100110000E080703040100000000000000000000BA
:1001200000000000000000000000000000000000CF
:10013000000000001211100000000000000000008C
:1001400000000000000000000000000000000102AC
:1001500010202008081020401020408002010201D9
:100160000804020101020408102040808040201091
:1001700008040201800402018040201008040201EA
:100180000804020101020408102040800102040852
:10019000102040800505050507050808080802022B
:1001A00002020A0A08080404040401010101010111
:1001B00001010303030303030303040707070C0CF4
:1001C0000C0C0C0C0C0C02020202060606060606BB
:1001D00006060B0B0B0B0B0B0B0B00002000230078
:1001E000260029002C002F0032000001000003012E
:1001F0000601090100002200250028002B002E0026
:100200003100340002010000050108010B0100006B
:100210002100240027002A002D00300033000101B6
:100220000000040107010A010017591D9925442601
:10023000671911241FBECFEFD1E2DEBFCDBF00E0B2
:100240000CBF16E0A0E0B2E0E0E5FBE500E00BBF8C
:1002500002C007900D92A232B107D9F72BE0A2E2BB
:10026000B6E001C01D92A734B207E1F712E0C0E387
:10027000D2E000E006C022970109FE010BBF0E94F8
:10028000792AC832D10780E00807A9F70E941E2A00
:100290000C94972DB5CE089508958091280681116C
:1002A00006C06DE873E085EA9AE00C94EE260895A6
:1002B000BF92CF92DF92EF92FF920F931F93CF9353
:1002C000DF93CDB7DEB768970FB6F894DEBF0FBEE9
:1002D000CDBF182FF62E63E176E0CE0143960E9443
:1002E000782863E176E0CE010D960E9478281A30D6
:1002F00088F587E0189F60011124F601EB50FD4F4F
:100300006F0100E010E0F601E00FF11F69E0600FFF
:1003100040818EE399E00E940C2040E0602F8EE344
:1003200099E00E940C2040E067E08EE399E00E9493
:100330000C200F5F1F4F0730110529F7F9E0FF155B
:1003400008F4B2C005EF12E0F7E0FF9E700111243F
:10035000B12C7BC04AE0612FCE0107960E94222972
:1003600060E070E0CE0107960E94012AFC016081E6
:10037000CE0101960E940A29BE016F5F7F4FCE0118
:1003800043960E94E928CE0101960E941128CE01D1
:1003900007960E9411284AE0612FCE0107960E941D
:1003A000222961E070E0CE0107960E94012AFC013B
:1003B0006081CE0101960E940A29BE016F5F7F4FC6
:1003C000CE010D960E94E928CE0101960E941128C7
:1003D000CE0107960E94112800E010E0CE0143965E
:1003E0000E94132AFB0133E0EE0FFF1F3A95E1F75D
:1003F000E00FF11FE55CFC4F4081602F8EE399E038
:100400000E940C200F5F1F4F0830110539F700E0E4
:1004100010E027E0E22ECE010D960E94132AE69E00
:10042000F001E79EF00D1124E00FF11FEB50FD4F9E
:1004300069E0600F40818EE399E00E940C200F5F1D
:100440001F4F0730110539F779CFF801EE0DFF1D69
:1004500069E06B0D40818DE399E00E940C20B3941C
:10046000F80140810F5F1F4F6B2D8DE399E00E94D3
:100470000C2087E0B812E9CFCE010D960E9411281A
:10048000CE0143960E94112868960FB6F894DEBFFD
:100490000FBECDBFDF91CF911F910F91FF90EF90D5
:1004A000DF90CF90BF9008954AE06F2DCE01079660
:1004B0000E94222960E070E0CE0107960E94012A86
:1004C000FC016081CE0101960E940A29BE016F5F86
:1004D0007F4FCE0143960E94E928CE0101960E94EB
:1004E0001128CE0107960E9411284AE06F2DCE01F7
:1004F00007960E94222961E070E0CE0107960E94D3
:10050000012AFC016081CE0101960E940A29BE01E8
:100510006F5F7F4FCE010D960E94E928CE010196B4
:100520000E941128CE0107960E94112800E010E0D9
:1005300097E0F92ECE0143960E94132AF69EF00111
:10054000F79EF00D1124E00FF11FEB50FD4F61E01D
:10055000600F40818DE399E00E940C200F5F1F4FD8
:100560000730110539F700E010E087E0F82ECE01E2
:100570000D960E94132AF69EF001F79EF00D1124AD
:10058000E00FF11FEB50FD4F69E0600F40818DE3FC
:1005900099E00E940C200F5F1F4F0730110539F7BB
:1005A0006BCF80912409882341F180918B03909136
:1005B0002609282F30E0291B3109409125092130D7
:1005C000310529F44C3319F460E080E015C021E0D6
:1005D000240F2D3318F42093250906C021E0209321
:1005E00025099F5F909326096CE390912509691B6B
:1005F000815090912609891B5BCE0895CF9360E0CE
:100600008EE399E00E948E1F61E08DE399E00E94E5
:100610008E1FC0E041E06C2F8EE399E00E94FC1F2A
:1006200041E06C2F8DE399E00E94FC1F40E06C2FAD
:100630008EE399E00E940C2040E06C2F8DE399E05E
:100640000E940C20CF5FC03129F781ED92E090939A
:1006500028098093270988EE93E0A0E0B0E080931A
:10066000290990932A09A0932B09B0932C090E9481
:10067000F42160932D0970932E0980932F09909394
:100680003009CF91089525E030E040E050E061E08E
:1006900070E080E090E00E94F6276093230925E057
:1006A00030E040E050E061E070E080E090E00E94E7
:1006B000F62760931F0925E030E040E050E061E05C
:1006C00070E080E090E00E94F6276093200980911E
:1006D0001F09861781F325E030E040E050E061E03B
:1006E00070E080E090E00E94F627609321098091FD
:1006F0001F09861781F380912009861761F325E091
:1007000030E040E050E061E070E080E090E00E9486
:10071000F6276093220980911F09861781F3809143
:100720002009861761F380912109861741F3089506
:10073000909123092FEF290F223050F4823011F5C8
:100740008091F3028F5F8093F3028091200917C09C
:10075000933051F48330B1F48091F3028F5F809332
:10076000F302809121090BC0943089F4843051F454
:100770008091F3028F5F8093F3028091220980932E
:100780001B0905C0809132068F5F8093320681E09D
:100790008093F4020895CF93DF93CDB7DEB72C9703
:1007A0000FB6F894DEBF0FBECDBF90912309282F5E
:1007B00030E09130B1F4F901E25EF64F408144300F
:1007C00041F48091F3028F5F8093F30240931C0900
:1007D0003FC0809132068F5F809332069093F30280
:1007E00037C0923051F4823059F58091F3028F5F17
:1007F0008093F3028091200920C0933099F48130D6
:1008000041F48091F3028F5F8093F30280911F097E
:1008100014C081E08093F302809132068F5F809351
:10082000320616C09430A1F4843051F48091F30262
:100830008F5F8093F3028091220980931C0908C086
:10084000809132068F5F8093320681E08093F302BD
:1008500081E08093F402F901E25EF64F4AE06081A4
:10086000CE0107960E9422296FE873E0CE0101961F
:100870000E947828BE01695F7F4FCE0101960E94D9
:10088000BA29BC0188E09AE00E94DE26CE010196DA
:100890000E941128CE0107960E9411282C960FB6AF
:1008A000F894DEBF0FBECDBFDF91CF910895909138
:1008B00023099130B9F420911C09E82FF0E0E25EA1
:1008C000F64F8081281308C08091F3028F5F8093D8
:1008D000F30220931D0942C0809132068F5F8093FE
:1008E000320620C0923051F490911B09E82FF0E0BD
:1008F000E25EF64F8081981329C020C09330A9F49E
:100900009091F302833041F49F5F9093F3028091C2
:10091000210980931D0922C0809132068F5F809348
:1009200032069F5F9093F30219C09430B9F4E82F18
:10093000F0E0E25EF64F9081943041F48091F30252
:100940008F5F8093F30290931D0908C08091320657
:100950008F5F8093320681E08093F30281E0809381
:10096000F402089590912309913099F4823051F462
:100970002091F3022F5F2093F3022091200920930E
:100980001E0907C09093F302209132062F5F209337
:10099000320692509330A0F4813051F48091F302EA
:1009A0008F5F8093F30280911F0980931E0908C016
:1009B00081E08093F302809132068F5F809332064C
:1009C00081E08093F402089590912309913089F495
:1009D000E82FF0E0E25EF64F20911B098081281796
:1009E00029F1809132068F5F809332069093F30253
:1009F00029C0923039F4E82FF0E0E25EF64F909192
:100A00001C0911C0933039F4E82FF0E0E25EF64F94
:100A100090911E0908C09430A9F4E82FF0E0E25E3E
:100A2000F64F90911D098081981304C08091F302C4
:100A30008F5F06C0809132068F5F8093320681E01F
:100A40008093F30281E08093F4020895AF92BF9205
:100A5000CF92DF92EF92FF920F931F93CF93DF938A
:100A6000142F97E0899F50011124F501E75AFD4F9B
:100A70005F01F7E06F9F60011124C6018A559D4F09
:100A80006C0197E0299F70011124F701EA55FD4F91
:100A90007F01C0E0D0E0F501EC0FFD1F40816C2F1D
:100AA0008AE199E00E940C20F601EC0FFD1F6C2FEB
:100AB000695F40818AE199E00E940C20F701EC0F08
:100AC000FD1F6C2F6B5F408189E199E00E940C2033
:100AD0002196C730D105F9F6F7E01F9FE0011124F8
:100AE000CA55DD4F48816EE08AE199E00E940C20F2
:100AF00049816FE08AE199E00E940C207E01C0E00C
:100B0000D0E0F701EC0FFD1F42816C2F89E199E0E5
:100B10000E940C202196C530D10599F787E0089FE7
:100B2000F0011124EA55FD4F43816FE089E199E01E
:100B30000E940C2097E0099F800111240A551D4F47
:100B4000C0E0D0E07801EC0EFD1E6C2F645FF70171
:100B5000408189E199E00E940C20F70144816C2FCB
:100B600088E199E00E940C202196C330D10551F70D
:100B7000DF91CF911F910F91FF90EF90DF90CF9079
:100B8000BF90AF9008951F93CF93DF93182FCBE0C2
:100B900040E06C2F88E199E00E940C20C150C630E3
:100BA000B9F7DBE0D11BCBE0CD1741F041E06C2F72
:100BB00088E199E00E940C20C150F6CFDF91CF91DF
:100BC0001F91089563E088E199E00E944C20811113
:100BD00008C063E088E199E00E944C208823C9F3B3
:100BE0002DC064E088E199E00E944C20811108C08A
:100BF00064E088E199E00E944C208823C9F320C07A
:100C000065E088E199E00E944C20811108C065E010
:100C100088E199E00E944C208823C9F313C066E064
:100C200088E199E00E944C2081110EC066E088E1C5
:100C300099E00E944C208823C9F308C081E0089500
:100C400082E0089583E0089580E0089584E00895A7
:100C5000CF93DF938EE30E94B522BC01882777FDF6
:100C60008095982F0E94CD2764E08AE199E00E9448
:100C70008E1F65E089E199E00E948E1F66E088E1A1
:100C800099E00E948E1FC0E041E06C2F8AE199E05C
:100C90000E94FC1F41E06C2F89E199E00E94FC1F3B
:100CA00040E06C2F8AE199E00E940C2040E06C2F1C
:100CB00089E199E00E940C20CF5FC03129F7C8E09C
:100CC00041E06C2F88E199E00E94FC1F40E06C2F0E
:100CD00088E199E00E940C20DBEFDC0F40E06D2FF3
:100CE00088E199E00E94FC1F41E06D2F88E199E0C6
:100CF0000E940620CF5FCC3019F7C0E041E06C2F96
:100D000088E199E00E94FC1F40E06C2F88E199E0A7
:100D10000E940C20CF5FC33089F741E067E088E193
:100D200099E00E94FC1F40E067E088E199E0DF91D4
:100D3000CF910C940C200F931F93CF93DF93CDB7DB
:100D4000DEB72C970FB6F894DEBF0FBECDBF8091F3
:100D5000F402882309F458C096DC009122092091FE
:100D600021094091200960911F09809123096EDEBD
:100D70008091F30208DF1092F40280910B02882325
:100D800009F442C04AE06091F302CE0107960E9446
:100D9000222968E973E0CE0101960E947828BE01FD
:100DA000695F7F4FCE0101960E94BA29BC0188E09D
:100DB0009AE00E94DE26CE0101960E941128CE0103
:100DC00007960E9411284AE060913206CE010796EC
:100DD0000E94222962EA73E0CE0101960E947828DF
:100DE000BE01695F7F4FCE0101960E94BA29BC0106
:100DF00088E09AE00E94DE26CE0101960E9411282A
:100E0000CE0107960E941128DDDE182F882359F0A5
:100E100080910B02882339F04AE050E0612F88E08E
:100E20009AE00E94B8278091F302813029F41123BF
:100E3000F1F0812F7DDC1BC0823029F41123B9F041
:100E4000812FA9DC14C0833029F4112381F0812F74
:100E50002EDD0DC0843029F4112349F0812F82DD6D
:100E600006C0853021F4112311F0812FADDD809172
:100E7000F302863059F40AE02AE04AE06AE08AE0A8
:100E8000E5DD80E080DE81E0809317092C960FB6C7
:100E9000F894DEBF0FBECDBFDF91CF911F910F91B0
:100EA000089561E08DE20E942D2361E08FE20E94AF
:100EB0002D2361E081E30E942D2360E08DE20E94FA
:100EC000662360E08FE20E94662360E081E30C9479
:100ED0006623CF93C82F60E08DE20E94662360E016
:100EE0008FE20E94662360E081E30E946623C130A6
:100EF00019F461E081E315C0C23039F461E081E3A7
:100F00000E94662361E08FE20CC0C33068F061E0AC
:100F100081E30E94662361E08FE20E94662361E024
:100F20008DE2CF910C946623CF910895CF92DF92FA
:100F3000EF92FF921F93CF93DF93CDB7DEB72C973D
:100F40000FB6F894DEBF0FBECDBF80910B02882391
:100F5000D1F14AE050E060910C0988E09AE00E94EB
:100F6000B8274AE050E060910D0988E09AE00E94BD
:100F7000B8274AE050E060910E0988E09AE00E94AC
:100F8000B8274AE050E06091A70888E09AE00E9404
:100F9000B8278091B3082AE2829FC00111248D50A6
:100FA000994F0E94132AAB01BC012AE030E088E08F
:100FB0009AE00E949C274AE050E06091910888E006
:100FC0009AE00E94B82720910C0930E080910E0928
:100FD00090E002974091A7082817390749F441305B
:100FE00049F080910B028823C9F06CEA73E00FC0CE
:100FF000413091F480910D0990E00196281739074E
:1010000059F480910B02882349F062EB73E088E089
:101010009AE00E94EE2602C010E001C011E0C090EC
:101020000D09D12CE12CF12C8091B3082AE2829F8A
:10103000C00111248D50994F0E94132A2091B108AC
:10104000C616D706E806F90619F42230C1F402C024
:10105000223001F5C0900D09D12CE12CF12C8091AA
:10106000B3082AE2829FC00111248750994F0E9441
:10107000132AC616D706E806F90661F456C01F5FA4
:1010800080910B02882331F068EB73E088E09AE0EE
:101090000E94EE2690910E093091930880910B02E8
:1010A00020919108391308C0222341F01F5F882343
:1010B00081F064EC73E009C021110DC0953059F442
:1010C0001F5F882331F06AEC73E088E09AE00E94A9
:1010D000EE26133099F1809132068F5F80933206AD
:1010E00080910B02882399F14AE0612FCE01079687
:1010F0000E94222960ED73E0CE0101960E947828BB
:10110000BE01695F7F4FCE0101960E94BA29BC01E2
:1011100088E09AE00E94DE26CE0101960E94112806
:10112000CE0107960E94112812C01F5F80910B020A
:10113000882309F4AFCF6EEB73E0A8CF81E08093F2
:101140000B09809131068F5F80933106C9CF2C96B1
:101150000FB6F894DEBF0FBECDBFDF91CF911F91C8
:10116000FF90EF90DF90CF90089586E10E949B233F
:10117000892B21F480911609882351F086E10E9481
:101180009B23019749F580911609811114C0089598
:1011900060E570E080E090E00E94232286E10E94FA
:1011A0009B23892B19F4809116098111089581E000
:1011B00080931609089560E570E080E090E00E9459
:1011C000232286E10E949B23019781F780911609D3
:1011D000882361F31092160980E00895BF92CF92A0
:1011E000DF92EF92FF920F931F93CF93DF93CDB7D0
:1011F000DEB72C970FB6F894DEBF0FBECDBFB42E6E
:1012000097E0899F60011124F601E45FFD4F6F01B3
:10121000F7E06F9F70011124C701845F9D4F7C012F
:1012200000E010E0F601E00FF11F4081602F85E142
:1012300099E00E940C20F701E00FF11F67E0600FBA
:10124000408185E199E00E940C200F5F1F4F07301D
:10125000110541F797E0B99E80011124045F1D4FED
:10126000F80140816EE085E199E00E940C20F801D0
:1012700041816FE085E199E00E940C2081E080933C
:10128000280662E370E080E090E00E942322FAE00A
:10129000BF1207C069ED73E085EA9AE00E94EE266E
:1012A00020C04AE06B2DCE0107960E9422296CEDEA
:1012B00073E0CE0101960E947828BE01695F7F4FDE
:1012C000CE0101960E94BA29BC0185EA9AE00E94EB
:1012D000DE26CE0101960E941128CE0107960E94BB
:1012E000112862E370E080E090E00E9423221092D7
:1012F00028062C960FB6F894DEBF0FBECDBFDF9147
:10130000CF911F910F91FF90EF90DF90CF90BF9002
:101310000895CF9363E085E199E00E948E1FC0E0BD
:1013200041E06C2F85E199E00E94FC1F41E06C2FA9
:1013300085E199E00E940C20CF5FC03189F762E01F
:1013400086E1CF910C942D230F931F93CF93DF93BE
:10135000CDB7DEB762970FB6F894DEBF0FBECDBF34
:101360008C0163E176E0CE010D960E94782863E15E
:1013700076E0CE0107960E94782863E176E0CE0100
:1013800001960E94782860E070E0C8010E94012A5E
:10139000FC016081CE010D960E94A72961E070E0FA
:1013A000C8010E94012AFC016081CE0107960E94BB
:1013B000A72962E070E0C8010E94012AFC01608157
:1013C000CE0101960E94A7298091120980930F09EE
:1013D0008091130980931009809114098093110959
:1013E000CE010D960E94132A21E0672B682B692BF2
:1013F00009F420E020931209CE0107960E94132AD7
:1014000021E0672B682B692B09F420E02093130956
:10141000CE0101960E94132A21E0672B682B692BCD
:1014200009F420E02093140980911209882369F0BF
:1014300080910F09811109C080910C098F5F809301
:101440000C098A3010F010920C098091130988233E
:1014500069F080911009811109C080910D098F5F99
:1014600080930D098A3010F010920D09222369F043
:1014700080911109811109C080910E098F5F8093BD
:101480000E098A3010F010920E098091B40888235A
:1014900021F080910B09882321F080910A028111AB
:1014A00007C040910E0960910D0980910C0996DEEC
:1014B000CE0101960E941128CE0107960E941128A4
:1014C000CE010D960E94112862960FB6F894DEBFE9
:1014D0000FBECDBFDF91CF911F910F91089520E0F6
:1014E00042E060E182EF98E00E94002120E042E0CB
:1014F00060E18AED98E00C94002120E044E064E192
:1015000082EC98E00E94002161E089E20E942D2394
:1015100060E089E20E94662362E08BE20C942D2356
:10152000EF92FF920F931F93CF93DF93CDB7DEB768
:1015300062970FB6F894DEBF0FBECDBF29E030E052
:1015400040E050E060E070E0CB010E94F62760933D
:10155000BF0829E030E040E050E060E070E0CB01FF
:101560000E94F6276093C0088091BF08861789F310
:1015700029E030E040E050E060E070E0CB010E9404
:10158000F6276093C1088091BF08861789F3809180
:10159000C008861769F380910B02811103C0E4EB48
:1015A000F8E029C00FEB18E0F80161918F014AE0E3
:1015B000CE0107960E9422296EED73E0CE010196BE
:1015C0000E947828BE01695F7F4FCE0101960E947C
:1015D000BA29BC0188E09AE00E94DE26CE0101967D
:1015E0000E941128CE0107960E941128F8E0023CC3
:1015F0001F07D1F6D4CF119288E0ED3BF807D9F759
:10160000AFEBB8E021E09D91E92FF0E080E0EC54F1
:10161000F74F981301C020838F5F8930D1F7E8E03E
:10162000A23CBE0781F72AE030E040E050E060E0F5
:1016300070E0CB010E94F6276093B30824E030E00D
:1016400040E050E060E070E0CB010E94F62760933C
:10165000B20882EC98E00E94E32040E060E082EC77
:1016600098E00E94E8206CEE73E082EC98E00E9423
:10167000D3260FEB18E0F12C56E0E52EF3944F2D16
:1016800060E082EC98E00E94E820F80161918F010F
:10169000E69EB00111246954794F82EC98E00E94D3
:1016A000C526F3E0FF12EACF82EF98E00E94E32024
:1016B00040E060E082EF98E00E94E8206091B3088B
:1016C0008AE2689FB00111246351794F82EF98E05C
:1016D0000E94C5268AED98E00E94E32040E060E089
:1016E0008AED98E00E94E8206091B208E6E06E9FE3
:1016F000B00111246156794F8AED98E00E94C52609
:10170000109293081092920803EA18E044E9E42E3C
:1017100048E0F42E23E030E040E050E060E070E08C
:10172000CB010E94F627F801608323E030E040E01F
:1017300050E060E070E0CB010E94F627F701608383
:1017400080919308893058F4F70161917F016130ED
:10175000A1F4809193088F5F8093930815C0613046
:1017600099F723E030E040E050E060E070E0CB012A
:101770000E94F627F7016083F2CF623029F480914E
:1017800092088F5F8093920880910B02882399F1D1
:101790004AE0CE0101960E9422294AE0F8016081C8
:1017A000CE010D960E9422296FEF73E0CE010796BD
:1017B0000E947828BE01635F7F4FCE0107960E948A
:1017C000BA296BE074E00E94CB29BE016F5F7F4FA6
:1017D0000E94BA29BC0188E09AE00E94DE26CE0170
:1017E00007960E941128CE010D960E941128CE0165
:1017F00001960E9411280F5F1F4FF8E0023B1F0760
:1018000009F088CF25E030E040E050E060E070E093
:10181000CB010E94F6276093910880910B028823E8
:10182000F9F04AE0CE0107960E9422296AE174E0AD
:10183000CE0101960E947828BE01695F7F4FCE01DC
:1018400001960E94BA29BC0188E09AE00E94DE2637
:10185000CE0101960E941128CE0107960E94112800
:1018600062960FB6F894DEBF0FBECDBFDF91CF9169
:101870001F910F91FF90EF9008958F929F92AF92DA
:10188000BF92CF92DF92EF92FF920F931F93CF936D
:10189000DF9300D000D0CDB7DEB78C01962ED72EC7
:1018A000A42E852EB22EC32E63E176E00E94782806
:1018B00064E274E0C8010E94F428E92CFD2CEFE0FA
:1018C000DE2EF70161917F014AE0CE0101960E9470
:1018D0002229BE016F5F7F4FC8010E94A129CE015E
:1018E00001960E941128DA9461F7EA2CF82C7FE027
:1018F000D72EF70161917F014AE0CE0101960E9447
:101900002229BE016F5F7F4FC8010E94A129CE012D
:1019100001960E941128DA9461F7EB2CFC2C63E00D
:10192000D62EF70161917F014AE0CE0101960E9417
:101930002229BE016F5F7F4FC8010E94A129CE01FD
:1019400001960E941128DA9461F7C80126960FB615
:10195000F894DEBF0FBECDBFDF91CF911F910F91E5
:10196000FF90EF90DF90CF90BF90AF909F908F90BF
:101970000895FF920F931F93CF93DF93CDB7DEB7F8
:1019800068970FB6F894DEBF0FBECDBF8BE20E9402
:101990009B23019721F48091BE08882359F0809100
:1019A000BD08882309F4A3C08BE20E949B23019702
:1019B00009F09DC081E0809324098093BE081092B5
:1019C000BD081092260910922509AADD60E08091D9
:1019D0008B030E94580161E089E20E94662363E163
:1019E00076E0CE0143960E9478284AE06091910803
:1019F000CE0107960E94222963E175E0CE0101968F
:101A00000E947828BE01695F7F4FCE0101960E9437
:101A1000BA29BC01CE0143960E94C128CE0101968D
:101A20000E941128CE0107960E941128BE016D5E0A
:101A30007F4F85EA9AE00E94DE2680910B02882380
:101A400009F451C02FEB38E044E958E063EA78E04C
:101A5000CE01019612DFBE016F5F7F4F88E09AE0F2
:101A60000E94DE26CE0101960E94112804EB18E0A8
:101A7000F12CF80161918F0170E04AE0CE010D96E2
:101A80000E944D294AE06F2DCE0107960E9422291F
:101A900066E274E0CE0101960E947828BE01695F7B
:101AA0007F4FCE0101960E94BA2967E074E00E9440
:101AB000CB29BE01635F7F4F0E94BA29BC0188E039
:101AC0009AE00E94DE26CE0101960E941128CE01E6
:101AD00007960E941128CE010D960E941128F394BA
:101AE000F9E0FF12C6CFCE0143960E9411286896F6
:101AF0000FB6F894DEBF0FBECDBFDF91CF911F911F
:101B00000F91FF900895CF93DF93CDB7DEB7629723
:101B10000FB6F894DEBF0FBECDBF87E896E00E94F7
:101B2000E32040E060E087E896E00E94E82024E0BF
:101B300030E040E050E060E070E0CB010E94F6272A
:101B400060936E0624E030E040E050E060E070E03A
:101B5000CB010E94F62760936D0660916E0686E0C9
:101B6000689FB00111246159794F87E896E00E947F
:101B7000C5264AE060916D06CE0107960E94222993
:101B80006CE075E0CE0101960E947828BE01695F85
:101B90007F4FCE0101960E94BA29BC01CE010D965D
:101BA0000E94D628CE0101960E941128CE010796E8
:101BB0000E94112880910B02882339F0BE01635FD7
:101BC0007F4F88E09AE00E94DE26BE01635F7F4F70
:101BD00085EA9AE00E94DE2664E670E080E090E00C
:101BE0000E942322CE010D960E94112862960FB604
:101BF000F894DEBF0FBECDBFDF91CF91089520E0F6
:101C000042E060E187E896E00C9400211F93CF93B7
:101C1000DF93CDB7DEB768970FB6F894DEBF0FBE7F
:101C2000CDBF182F63E176E0CE0143960E9478285D
:101C300063E176E0CE010D960E94782820918B0317
:101C400030E080912609281B3109B90161507109E2
:101C50004AE0CE012B303105E4F407960E944D296D
:101C60006AE474E0CE0101960E947828BE01695FA3
:101C70007F4FCE0101960E94BA29BC01CE01439646
:101C80000E94C128CE0101960E941128CE0107961C
:101C90000CC001960E944D29BE016F5F7F4FCE019F
:101CA00043960E94DE28CE0101960E941128809161
:101CB00025096CE370E0681B71094AE0CE016A30C7
:101CC0007105E4F407960E944D296AE474E0CE01A0
:101CD00001960E947828BE01695F7F4FCE01019670
:101CE0000E94BA29BC01CE010D960E94C128CE01E6
:101CF00001960E941128CE0107960CC001960E9401
:101D00004D29BE016F5F7F4FCE010D960E94DE28E8
:101D1000CE0101960E94112860E070E0CE0143964A
:101D20000E94012AFC018081181701F161E070E036
:101D3000CE0143960E94012AFC0180811817B1F060
:101D400060E070E0CE010D960E94012AFC018081C6
:101D5000181761F061E070E0CE010D960E94012A33
:101D6000FC018081181711F010E001C011E0CE01D4
:101D70000D960E941128CE0143960E941128812FB2
:101D800068960FB6F894DEBF0FBECDBFDF91CF913E
:101D90001F910895CF9320916E0690916C068091CB
:101DA0006B06211172C09923B9F0811190C181E0B5
:101DB00080936B060E94F421609367067093680617
:101DC0008093690690936A0680910B02882309F438
:101DD0007EC16CEA73E0FFC0882309F478C11092D9
:101DE0006B060E94F42160936306709364068093EF
:101DF00065069093660680910B02882331F062EBB2
:101E000073E088E09AE00E94EE268091630690914C
:101E10006406A0916506B0916606409167065091F0
:101E200068066091690670916A06841B950BA60B83
:101E3000B70B883E9340A105B10584F481E08093FF
:101E40006206809131068F5F8093310680910B028C
:101E5000882309F43CC168EB73E0BDC08091320671
:101E60008F5F809332064FDE80910B02882331F022
:101E70006EEB73E088E09AE00E94EE2664E670E084
:101E800080E090E0CF910C942322213009F076C0BD
:101E90003091B208311172C09923B1F0811117C18C
:101EA00020936B060E94F421609367067093680686
:101EB0008093690690936A0680910B02882309F447
:101EC00006C164EC73E087C0882309F400C1109256
:101ED0006B060E94F42160936306709364068093FE
:101EE00065069093660680910B02882331F06AECB8
:101EF00073E088E09AE00E94EE268091630690915C
:101F00006406A0916506B0916606409167065091FF
:101F100068066091690670916A06841B950BA60B92
:101F2000B70B815A9F40A109B1098F3C9740A10589
:101F3000B10580F481E080936206809131068F5F65
:101F40008093310680910B02882309F4C0C063E3BB
:101F500074E041C0809132068F5F80933206D3DDFA
:101F600064E670E080E090E00E94232280910B0202
:101F7000882309F4ACC069E374E02DC0992369F0AB
:101F800081112EC081E080936B0680910B02882323
:101F900009F49DC06FE374E01EC0882309F1C0916D
:101FA000B208C130E9F484E331DE8823C9F08091BE
:101FB0006D068230A9F410926B06C0936206809180
:101FC00031068F5F8093310680910B02882309F4DC
:101FD0007EC065E474E088E09AE0CF910C94EE2630
:101FE00080916C0681111DC080916B068823C9F019
:101FF000C0916D06C130A9F488E308DE882389F01A
:1020000010926B06C0936206809131068F5F8093B9
:10201000310680910B02882309F459C06CE474E006
:10202000DACF80916C0681111DC080916B068823E8
:10203000C9F080916D068330A9F485E3E7DD88233C
:1020400089F010926B0681E08093620680913106E0
:102050008F5F8093310680910B028823C1F163E585
:1020600074E0B9CF80916C06811119C080916B0624
:102070008823A9F081E3CADD882389F010926B06DA
:1020800081E080936206809131068F5F80933106F4
:1020900080910B028823D9F06AE574E09CCF80918F
:1020A0006C06811114C080916B06882381F08091A9
:1020B00032068F5F8093320610926B0624DD80918A
:1020C0000B02882309F4DACE61E674E0D3CECF9117
:1020D00008950F931F93CF93DF9300D000D0CDB717
:1020E000DEB78C0163E176E0CE0101960E9478288C
:1020F00063E176E0CE0101960E94F42861E170E090
:10210000C8010E94012AFC016081CE0101960E9453
:10211000A729CE0101960E94132A21E0672B682B84
:10212000692B09F420E020936C0680912B0688230C
:1021300041F0222331F068E674E088E09AE00E94E2
:10214000EE26CE0101960E94112826960FB6F8942D
:10215000DEBF0FBECDBFDF91CF911F910F910895CC
:102160005F926F927F928F929F92AF92BF92CF9227
:10217000DF92EF92FF920F931F93CF93DF93CDB730
:10218000DEB768970FB6F894DEBF0FBECDBF3C0137
:1021900063E176E0CE0143960E947828FDE48F2E1D
:1021A000F6E09F2EA4E5AA2EA6E0BA2EBBE5CB2E24
:1021B000B6E0DB2E840183E0E82EF12C502E581877
:1021C00063E176E0CE0143960E94F428B701C30193
:1021D0000E94012AFC016081CE0143960E94A7293A
:1021E000F5018081F8018083CE0143960E94132A75
:1021F00021E0672B682B692B09F420E0F50121937E
:102200005F01222309F449C0F8018081811145C092
:10221000CE0143960E94132A21E0672B682B692B7D
:1022200009F420E0F601208380910B028823B9F1A4
:10223000622F70E04AE0CE0101960E944D294AE0EB
:10224000652DCE010D960E9422296BE674E0CE0129
:1022500007960E947828BE01635F7F4FCE010796E4
:102260000E94BA2967E074E00E94CB29BE016F5F2B
:102270007F4F0E94BA29BC0188E09AE00E94DE26C6
:10228000CE0107960E941128CE010D960E941128BA
:10229000CE0101960E94112802C0F6011082FFEFC4
:1022A000EF1AFF0A0F5F1F4F8FEFC81AD80AEAE034
:1022B000EE16F10409F082CFCE0143960E94112858
:1022C00068960FB6F894DEBF0FBECDBFDF91CF91F9
:1022D0001F910F91FF90EF90DF90CF90BF90AF9044
:1022E0009F908F907F906F905F90089580915B0694
:1022F000811119C080915C06811115C080915D0625
:10230000811111C080915E0681110DC080915F0620
:10231000811109C080916006811105C0809161061C
:10232000882309F4A4C080915406811104C09091BF
:1023300059069923C9F02091930890919208921719
:1023400098F4882309F493C080915906882309F4EE
:102350008EC081E080934C0680910B02882309F4A3
:1023600086C068E774E03AC080919108982F9D7FFD
:1023700011F0843099F48091320681110FC0809160
:102380005506882359F081E080934C0680910B021A
:10239000882309F46CC061E874E020C08091BA0819
:1023A000882301F18091B3082AE2829FC0011124A1
:1023B00069ED75E08B5F984F0E94E329882391F0C7
:1023C00080915606882371F081E080934C068091BD
:1023D0000B02882309F44BC06AE874E088E09AE0B5
:1023E0000C94EE268091AA08813041F48091AF08C8
:1023F000813021F480915706811104C080915A06E2
:10240000882391F080915706882389F180915A069C
:10241000882369F181E080934C0680910B02882328
:1024200031F163E974E0DACF9091910880910B0269
:10243000992319F09250923060F4909158069923A4
:1024400041F091E090934C06882389F06CE974E0A8
:10245000C5CF882331F065EA74E088E09AE00E94F5
:10246000EE26809132068F5F80933206089508959C
:102470001F93CF93DF9362E08BE496E00E948E1F60
:10248000C0E042E06C2F8BE496E00E94FC1F41E02C
:102490006C2F8BE496E00E940C20CF5FCC3089F744
:1024A00041E06C2F8BE496E00E94FC1F40E06C2F13
:1024B0008BE496E00E940C20CF5FCF3089F7C4E414
:1024C000D6E019E0612F8EE399E00E944C2091E064
:1024D000811190E099931F5F1C30A1F7DF91CF919C
:1024E0001F91089569E08BE496E00E944C2041E042
:1024F000811140E06CE08BE496E00E940C206AE0E1
:102500008BE496E00E944C2041E0811140E06DE0B8
:102510008BE496E00E940C206BE08BE496E00E9436
:102520004C2041E0811140E06EE08BE496E00C9499
:102530000C20AF92BF92CF92DF92EF92FF920F9357
:102540001F93CF93DF93CDB7DEB762970FB6F894A2
:10255000DEBF0FBECDBF94E4E92E96E0F92E21E454
:10256000C22E26E0D22E07E416E0B12CAA24A394B2
:10257000F6018081F701808369E06B0D8BE496E0C2
:102580000E944C2091E0811190E0F60191936F013F
:10259000992309F43FC0F701808181113BC0F80104
:1025A000A08280910B028823B9F14AE061E070E0DB
:1025B000CE0101960E944D294AE06B2DCE010D9669
:1025C0000E9422296EEA74E0CE0107960E947828C4
:1025D000BE01635F7F4FCE0107960E94BA2967E074
:1025E00074E00E94CB29BE016F5F7F4F0E94BA2921
:1025F000BC0188E09AE00E94DE26CE0107960E9488
:102600001128CE010D960E941128CE0101960E943C
:10261000112802C0F8011082B394FFEFEF1AFF0AED
:102620000F5F1F4F83E0B812A3CF62960FB6F894E6
:10263000DEBF0FBECDBFDF91CF911F910F91FF90F5
:10264000EF90DF90CF90BF90AF900895CF934ADF87
:1026500070DF80914206882371F08091B3082AE2EE
:10266000829FC001112469ED75E0855F984F0E943B
:10267000E3298111E3C010923B068091B20826E065
:10268000829FC00111246DEB74E08156994F0E9426
:10269000E329811104C081E080933C060EC0809143
:1026A000A808813041F48091AC08813021F48091F8
:1026B000A608823081F710923C0680913B0681117A
:1026C00008C080913C06811104C081E080933D06E2
:1026D00017C0C0919108CD7FC13009F0B3C080917F
:1026E000B3082AE2829FC001112469ED75E08B5F77
:1026F000984F0E94E329882309F4A4C0C0933D06A3
:102700009091410680913B06992331F0882349F04E
:1027100081E080933E061AC08823D1F310923E06D2
:1027200015C080914706882389F010923E0680915B
:1027300032068F5F8093320680910B02882331F03E
:1027400061EC74E088E09AE00E94EE2680914206F7
:10275000882341F080913C06882321F081E080931A
:102760003F0620C080914106811107C080913C0640
:102770008823A1F310923F0615C080914806882354
:1027800089F010923F06809132068F5F8093320667
:1027900080910B02882331F060ED74E088E09AE0CC
:1027A0000E94EE2680914306882341F090913D06D9
:1027B000992321F081E08093400626C09091410644
:1027C000911107C090913D06992319F0109240068F
:1027D0001BC0811104C080913D06882359F380916C
:1027E0004906882389F010924006809132068F5F57
:1027F0008093320680910B02882331F060EE74E002
:1028000088E09AE00E94EE2680913E068823E9F057
:1028100080913F068823C9F0809140068823A9F063
:1028200081E080934A0680910B02882371F061EF6A
:1028300074E088E09AE0CF910C94EE2681E08093DA
:102840003B061BCF10923D065BCFCF91089561E010
:1028500086E00E942D2361E086E00E94662360E00E
:1028600086E30C942D23CF92DF92EF92FF920F9389
:102870001F93CF93DF9300D000D0CDB7DEB76C01AC
:1028800063E176E0CE0101960E94782880913806B7
:102890008093370638E3E32E36E0F32E0AE010E0AB
:1028A000B801C6010E94012AFC016081CE01019697
:1028B0000E94A729CE0101960E94132A21E0672BCE
:1028C000682B692B09F420E0F70121937F010F5F4A
:1028D0001F4F0D30110521F780913806882371F0C4
:1028E0008091370681110AC081E0809336066CEF33
:1028F00074E088E09AE00E94EE2602C0109236064C
:10290000CE0101960E94112826960FB6F894DEBFDC
:102910000FBECDBFDF91CF911F910F91FF90EF9030
:10292000DF90CF900895CF93DF93EC0186E30E9470
:10293000B522893291051CF46FE075E032C09C012C
:10294000295231092E36310518F468E075E029C0A6
:102950009C01275931092E36310518F46EE075E0D7
:1029600020C09C01255031402E3B310518F46DEEFE
:1029700074E017C09C012D5C31402E36310518F4EF
:102980006DED74E00EC09C012B5332402A353105A9
:1029900018F46EEC74E005C0853992402CF061E1CA
:1029A00075E0CE010E947828CE01DF91CF91089585
:1029B0001F93CF93DF93CDB7DEB72C970FB6F89464
:1029C000DEBF0FBECDBF80913606882309F4E4C078
:1029D00061E086E00E94662390919208953040F075
:1029E00080913906882321F081E08093350616C056
:1029F00080913A06882321F02091AE082130A1F37E
:102A0000953050F49091AE08913031F090913906A4
:102A1000911102C0882341F31092350663E176E0FC
:102A2000CE0107960E94782815E0CE0101967BDF43
:102A3000BE016F5F7F4FCE0107960E94DE28CE0158
:102A400001960E941128115081F780913206823040
:102A500041F46DEE74E0CE0107960E94E3298111E6
:102A600094C08091B3082AE2829FC001112469EDCD
:102A700075E08F5E984F0E94E329882341F06DED49
:102A800074E0CE0107960E94E32981117EC0109167
:102A90009108113009F043C061E175E0CE0107965D
:102AA0000E94E3298823D9F11093340680913406DB
:102AB000882381F080913506882361F081E080933E
:102AC000330660E086E00E9466231092340610927E
:102AD000350620C0809132068F5F8093320615E064
:102AE00061E086E00E94662362E370E080E090E0AF
:102AF0000E94232260E086E00E94662362E370E089
:102B000080E090E00E942322109234061092350655
:102B1000115031F7CE0107960E9411283DC08091D7
:102B2000A508823041F468E075E0CE0107960E9466
:102B3000E32981112AC08091390681110CC080914E
:102B40003A06811108C06FE075E0CE0107960E9439
:102B5000E32981111AC0809132068230D1F0809130
:102B6000B3082AE2829FC00111246DED75E08F5EEB
:102B7000984F0E94E329882361F080919108813069
:102B800041F08091A508823021F081E080933406E5
:102B90008DCF109234068ACF2C960FB6F894DEBFF4
:102BA0000FBECDBFDF91CF911F9108958EE30E949C
:102BB000B522BC01882777FD8095982F0E94CD27EC
:102BC00026E040E855E260E070E088E09AE00E948C
:102BD000D12426E040E855E260E070E085EA9AE022
:102BE0000E94D12465E175E085EA9AE00E94EE2614
:102BF00062E370E080E090E00E94232268E175E0EB
:102C000085EA9AE00E94EE2662E370E080E090E0C0
:102C10000E9423222DDC0E946F0A0E947D0A0E94DE
:102C200089090E94FF0D0E94FE020E9428060E9450
:102C300051070DDE4AE06AE08AE00E94EE0879DC86
:102C40008DE491E0909332098093310984E690E01D
:102C5000A0E0B0E08093330990933409A093350944
:102C6000B09336090E94F4216093370970933809B4
:102C70008093390990933A0908950F931F93CF9346
:102C8000DF93CDB7DEB72C970FB6F894DEBF0FBE3B
:102C9000CDBF11E01093280610920C0910920D0977
:102CA00010920E094AE06AE08AE00E94EE08109253
:102CB0000B0910920A0910924A0610924C060AE07B
:102CC0002AE04AE06AE08AE00E942605109217098D
:102CD0001093F4021093F30280E00E94C305109257
:102CE000620687E896E00E94E32010922C064AE0F4
:102CF00064E070E0CE0107960E944D296CE075E01B
:102D0000CE0101960E947828BE01695F7F4FCE01F7
:102D100001960E94BA29BC0185EA9AE00E94DE264B
:102D2000CE0101960E941128CE0107960E9411281B
:102D300062E370E080E090E00E9423221092290676
:102D400010922E066BE175E085EA9AE00E94EE266D
:102D500062E370E080E090E00E9423221092280657
:102D60002C960FB6F894DEBF0FBECDBFDF91CF918A
:102D70001F910F9108950F931F93CF93DF9300D06E
:102D800000D0CDB7DEB78C01BC01CE0101960E9408
:102D9000D628CE0101960E94A409CE0101960E9478
:102DA0001128B801CE0101960E94D628CE010196C5
:102DB00090D9CE0101960E941128B801CE0101964A
:102DC0000E94D628CE010196CBD9CE0101960E9451
:102DD0001128B801CE0101960E94D628CE01019695
:102DE00042DDCE0101960E94112826960FB6F89476
:102DF000DEBF0FBECDBFDF91CF911F910F91089520
:102E0000CF92EF920F938BE491E0909328098093F7
:102E100027091092290910922A0910922B09109261
:102E20002C0910922D0910922E0910922F09109240
:102E3000300990933209809331091092330910922E
:102E40003409109235091092360910923709109200
:102E500038091092390910923A098CE491E0909364
:102E60003C0980933B0942E0C42E53E0E52E04E088
:102E700025E04BE06CE082EF98E00E94862125E09F
:102E80004AE06CE08AED98E00E94862125E049E066
:102E90006CE082EC98E00E9486216EE175E08DEE98
:102EA00096E00E94782864E575E083EF96E00E9442
:102EB000782866E175E089EF96E00E94782869ED50
:102EC00075E08FEF96E00E9478286DED75E085E063
:102ED00097E00E9478286DED75E08BE097E00E9406
:102EE000782869ED75E081E197E00E94782865E235
:102EF00075E087E197E00E94782861E574E08DE154
:102F000097E00E9478286AE474E083E297E00E94E8
:102F100078286DED75E089E297E00E94782869EDE8
:102F200075E08FE297E00E94782869ED75E085E30F
:102F300097E00E94782869ED75E08BE397E00E94A6
:102F400078286BE275E081E497E00E94782861E5DB
:102F500074E087E497E00E9478286FE275E08DE4E2
:102F600097E00E94782869ED75E083E597E00E947C
:102F7000782869ED75E089E597E00E9478286DED85
:102F800075E08FE597E00E9478286DED75E085E6A5
:102F900097E00E94782861E375E08BE697E00E9455
:102FA00078286EEC73E081E797E00E94782865E36B
:102FB00075E087E797E00E9478286DED75E08DE772
:102FC00097E00E9478286DED75E083E897E00E9415
:102FD000782869ED75E089E897E00E9478286DED22
:102FE00075E08FE897E00E94782867E375E085E94F
:102FF00097E00E94782861E574E08BE997E00E94F1
:10300000782864E575E081EA97E00E9478286DED04
:1030100075E087EA97E00E9478286DED75E08DEA0B
:1030200097E00E9478286DED75E083EB97E00E94B1
:1030300078286DED75E089EB97E00E9478286EE3C3
:1030400075E08FEB97E00E94782865E375E085ECEA
:1030500097E00E94782861E574E08BEC97E00E948D
:10306000782869ED75E081ED97E00E9478286DED94
:1030700075E087ED97E00E9478286DED75E08DEDA5
:1030800097E00E9478286DED75E083EE97E00E944E
:10309000782864E475E089EE97E00E94782861E57D
:1030A00074E08FEE97E00E94782864E575E085EF84
:1030B00097E00E9478286DED75E08BEF97E00E9415
:1030C000782869ED75E081E098E00E94782869ED44
:1030D00075E087E098E00E9478286DED75E08DE05E
:1030E00098E00E9478286AE475E083E198E00E9405
:1030F000782866E674E089E198E00E94782866E620
:1031000074E08FE198E00E9478286DED75E085E22B
:1031100098E00E9478286DED75E08BE298E00E94BF
:1031200078286DED75E081E398E00E94782869EDDC
:1031300075E087E398E00E94782860E575E08DE30C
:1031400098E00E9478286FE275E083E498E00E949E
:10315000782864E575E089E498E00E94782869EDB4
:1031600075E08FE498E00E94782869ED75E085E5C8
:1031700098E00E9478286DED75E08BE598E00E945C
:10318000782869ED75E081E698E00E94782866E588
:1031900075E087E698E00E94782861E574E08DE6A6
:1031A00098E00E94782866E674E083E798E00E9441
:1031B00078286DED75E089E798E00E94782869ED40
:1031C00075E08FE798E00E9478286DED75E085E85E
:1031D00098E00E9478286DED75E08BE898E00E94F9
:1031E00078286CE575E087EB96E00E94782863E626
:1031F00075E08DEB96E00E9478286BE675E083EC35
:1032000096E00E94782862E775E089EC96E00E94DB
:1032100078286CE775E08FEC96E00E94782869E8E2
:1032200075E085ED96E00E94782860E975E08BED09
:1032300096E00E94782867E975E081EE96E00E94AA
:1032400078286DE975E087EE96E00E94782868EAB4
:1032500075E08FE996E00E9478286CEA75E085EACF
:1032600096E00E9478286DEB74E08BEA96E00E946D
:10327000782860EB75E081EB96E00E94782825E0E5
:1032800048E06CE087E896E00E94862164EB75E0F8
:103290008FE696E00E94782869EB75E085E796E076
:1032A0000E94782862E075E08BE796E00E9478281B
:1032B0006FEB75E081E896E00E94782863E176E0A4
:1032C00082E296E00F91EF90CF900C947828CF9304
:1032D000DF9382E296E00E94112881E896E00E9446
:1032E00011288BE796E00E94112885E796E00E945E
:1032F00011288FE696E00E94112881EB96E00E944B
:1033000011288BEA96E00E94112885EA96E00E9437
:1033100011288FE996E00E941128CDEED6E026977D
:10332000CE010E94112886E0C73BD807C1F7C1E94A
:10333000D8E02697CE010E94112886E0CD3ED8071E
:10334000C1F7DF91CF910895CF93DF9300D000D0E4
:10335000CDB7DEB763E176E0CE0101960E94782812
:10336000809131068093300685EA9AE00E94C3235B
:10337000181619060CF04CC085EA9AE00E94C32387
:103380001816190684F485EA9AE00E94DC23682F57
:10339000CE0101960E94A72965E070E080E090E0F0
:1033A0000E942322E9CF60E070E0CE0101960E94E6
:1033B000012AFC018081833549F4809131068F5FB9
:1033C0008093310681E08093290617C060E070E0A9
:1033D000CE0101960E94012AFC018081853431F4DE
:1033E000809132068F5F8093320607C0BE016F5F07
:1033F0007F4F82E296E00E94C12880912B068823AD
:1034000039F0BE016F5F7F4F88E09AE00E94DE26B0
:10341000CE0101960E94112826960FB6F894DEBFC1
:103420000FBECDBFDF91CF9108953F924F925F9233
:103430006F927F928F929F92AF92BF92CF92DF92C4
:10344000EF92FF920F931F93CF93DF93CDB7DEB729
:1034500064970FB6F894DEBF0FBECDBF75DF62E292
:1034600076E0CE0101960E94D628CE01019683DC3B
:10347000CE0101960E9411288091BE08882319F080
:103480008091BD0881110E94B90C8091BE08811104
:1034900005C080910A028A3009F42CC18091B408D9
:1034A000882321F080910B09882321F080910A0262
:1034B000811119C080910A09811107C040E060E0C4
:1034C0000E94EE0881E080930A090E94B5088111EC
:1034D0000E94960780910B09882329F04AE06AE050
:1034E0008AE00E94EE088091B608882321F080913E
:1034F0004A06882321F080910A028230E9F4809103
:103500004A06811101C0A2D880914A068823A1F001
:10351000809131068F5F8093310640E06CE08BE450
:1035200096E07AD540E06DE08BE496E075D540E01A
:103530006EE08BE496E070D58091B808882321F086
:1035400080914C06882321F080910A028430C9F4CE
:1035500080914C06811102C00E94761180914C0628
:10356000882379F0809131068F5F809331068091B6
:103570000B02882331F068EC75E088E09AE00E9445
:10358000EE268091B908882321F0809117098823BD
:1035900021F080910A02853011F40E949B068091EF
:1035A000BA08882321F080916206882329F080914F
:1035B0000A02863009F054C080912C06811113C094
:1035C00011E01093280662E370E080E090E03BD7C2
:1035D0000E94830D62E370E080E090E034D71092A7
:1035E000280610932C0680916206811139C00E9432
:1035F000CA0E80916206882399F187E896E0E3D5A8
:1036000081E08093280662E370E080E090E01BD7C1
:103610004AE064E070E0CE0107960E944D296CE01C
:1036200075E0CE0101960E947828BE01695F7F4F48
:10363000CE0101960E94BA29BC0185EA9AE00E9457
:10364000DE26CE0101960E941128CE0107960E9427
:10365000112862E370E080E090E0F5D61092280631
:103660008091BB08882321F080913306882321F0C4
:1036700080910A02873071F480913306811101C074
:1036800097D980913306882329F0809131068F5F86
:10369000809331068091BC08811104C080910A0298
:1036A000883041F580912E06811124C081E08093FD
:1036B000280662E370E080E090E0C5D68091B30810
:1036C0000AE2809FC001112469ED75E08150994F95
:1036D0000E94E329882319F067ED75E002C06BEDC5
:1036E00075E085EA9AE00E94EE261092280681E0B5
:1036F00080932E0679D62B013C0167E2862E69E085
:10370000962E312CD40116964D915D916D917C9140
:10371000199712960D911D912D913C9115970D873A
:103720001E872F87388B012B022B032BC9F19301A6
:103730008201041B150B260B370B580169014D85BF
:103740005E856F8578899A01AB0160E070E0CB01FE
:103750002D873E874F87588B698B7A8B8B8B9C8B01
:103760009501A60160E070E080E090E0AD84BE8449
:10377000CF84D888E12CF12C00E010E00E947D2A53
:103780007CF0E0913B09F0913C09832D1995D4011F
:10379000ED91FC911995F4014682578260867186FD
:1037A000FAE08F0E911C339402E03012ABCF60919F
:1037B000310680913006861718F580910B02882318
:1037C000F9F04AE0CE0107960E9422296FED75E0DC
:1037D000CE0101960E947828BE01695F7F4FCE011D
:1037E00001960E94BA29BC0188E09AE00E94DE2678
:1037F000CE0101960E941128CE0107960E94112841
:103800008091320690912A06981710F40E94690759
:103810008091320680932A068330B8F02EDA81E058
:103820008093BD081092310610922F0610922E063A
:1038300010922D0610922C060E94B90C109232069E
:1038400080E00E94690710922A0664960FB6F894E9
:10385000DEBF0FBECDBFDF91CF911F910F91FF90C3
:10386000EF90DF90CF90BF90AF909F908F907F9020
:103870006F905F904F903F90089580916F0990E016
:1038800020917009821B91090895209170098091FF
:103890006F09281750F4E22FF0E0EF58F64F8081BF
:1038A00090E02F5F2093700908958FEF9FEF0895A8
:1038B000E091700980916F09E81730F4F0E0EF585B
:1038C000F64F808190E008958FEF9FEF089508955F
:1038D000CF92DF92EF92FF920F931F93CF93DF93DC
:1038E0007C01CB018A0120914B09222389F0EB0155
:1038F0006B01C40ED51ECC15DD0561F06991D701B1
:10390000ED91FC910190F081E02DC7011995F3CF65
:10391000642F8DD1C801DF91CF911F910F91FF903E
:10392000EF90DF90CF900895CF93DF931F92CDB7A4
:10393000DEB7698320914B092223D1F020914C09F5
:10394000203240F021E030E0FC013383228380E02C
:1039500090E014C080914D09E82FF0E0E25BF64F53
:10396000998190838F5F80934D0980934C0904C0A7
:1039700061E0CE0101965BD181E090E00F90DF9194
:10398000CF910895FC011382128248EE53E060E06B
:1039900070E044835583668377838DEE95E0918351
:1039A000808308951092700910926F0910924D094A
:1039B00010924C0981C081E080934B0960936E099D
:1039C00010924D0910924C090895F5CF0F93062FD0
:1039D00021E040914C096EE479E080916E09D0D0ED
:1039E00010924D0910924C0910924B090F910895B5
:1039F0008F929F92AF92BF92CF92DF92EF92FF92FF
:103A00000F931F93CF93DF93EC01F62ED42E480132
:103A10005901EE2009F1CFDF1E2D143008F013E01C
:103A20001150B8F0E881F98128E0129FB00111240B
:103A3000A501940104C056954795379527956A9539
:103A4000D2F7CA01B9010190F081E02DCE0119959C
:103A5000E7CF60E0CE01BADF4D2D413208F040E201
:103A60002C2D61E779E08F2D43D01092700980935F
:103A70006F09DF91CF911F910F91FF90EF90DF9031
:103A8000CF90BF90AF909F908F900895CF92EF927C
:103A90000F931F93C22EE12C00E010E09801A8DFE5
:103AA0001F910F91EF90CF90089521E0EFCF61E04B
:103AB0008DCF8FE399E066CF1092FE0981E080936D
:103AC000FC091092FB0961E084E100D661E085E128
:103AD000FDD5E9EBF0E080818E7F808380818D7F52
:103AE000808388E48093B80085E48093BC000895C7
:103AF000413208F043C09091FE099111FCCF91E052
:103B00009093FE092093FC092FEF209391091092C6
:103B1000D609240F2093D5099093FD099091FD09B2
:103B2000880F892B8093FD098091FB09813061F416
:103B30001092FB098091FD098093BB008091BC002D
:103B400083FDF8CF85EC01C085EE8093BC008091A9
:103B5000FE098130E1F38091D609841710F4409179
:103B6000D60927ED39E0FB01D9018A2F821B841782
:103B700018F48D918193F9CF842F089580E00895F2
:103B80000F93413208F04AC09091FE099111FCCF89
:103B900092E09093FE090093FC099FEF90939109A6
:103BA0001092D6094093D509FB0167ED79E0DB015E
:103BB0009A2F961B941718F491919D93F9CF109218
:103BC000FD099091FD09880F892B8093FD09809153
:103BD000FB09813061F41092FB098091FD0980930B
:103BE000BB008091BC0083FDF8CF85EC01C085EE61
:103BF0008093BC00222321F08091FE098230E1F302
:103C0000809191098F3F61F080919109803251F04C
:103C100080919109803341F483E007C081E005C0C1
:103C200080E003C082E001C084E00F91089561321A
:103C300098F42091FE09243089F46093B309FC01C3
:103C400085EB99E0DC012A2F281B261718F4219117
:103C50002D93F9CF80E0089581E0089582E00895E2
:103C600085ED8093BC008091BC0084FDFCCF109258
:103C7000FE09089585EC8093BC001092FE0908951A
:103C80001F920F920FB60F9211240BB60F922F9323
:103C90003F934F935F936F937F938F939F93AF93D4
:103CA000BF93EF93FF938091B900887F803609F42A
:103CB0009DC070F5883209F45CC090F4803109F43D
:103CC00055C038F4882309F4F3C0883009F44EC095
:103CD000F2C0883109F44DC0803209F45EC0EBC0F7
:103CE000803409F469C050F4803309F456C0883335
:103CF00009F0E1C080939109BDDFDDC0803509F492
:103D00004FC0883509F45DC0883409F0D4C0D2C0F2
:103D1000883909F4C3C0A8F4883709F467C038F4B7
:103D2000883609F463C0803709F460C0C4C088389D
:103D300009F4B4C0803909F45FC0803809F0BBC011
:103D40005BC0803B09F482C038F4803A09F466C055
:103D5000883A09F47BC0AFC0803C09F4A3C0883C1A
:103D600009F4A0C0883B09F486C0A5C08091FD0974
:103D700010C09091D6098091D509981770F5E091FF
:103D8000D60981E08E0F8093D609F0E0E952F64F14
:103D900080818093BB0085EC82C0809391098AC0AA
:103DA000E091D60981E08E0F8093D6098091BB0007
:103DB000F0E0E952F64F80839091D6098091D509C1
:103DC0006AC0E091D60981E08E0F8093D609809178
:103DD000BB00F0E0E952F64F80838091FC0981112D
:103DE00069C081E08093FB0984EA5DC083E0809331
:103DF000FE0910929209CFCF80919209803208F08B
:103E00004DC0E091920981E08E0F809392098091DC
:103E1000BB00F0E0ED56F64F8083BDCF2BDF8091E5
:103E20009209803230F4E0919209F0E0ED56F64FBD
:103E300010826091920970E0E091F709F091F80921
:103E400083E999E019951092920935C084E0809336
:103E5000FE091092B4091092B309E091F909F091AA
:103E6000FA0919958091B309811105C081E0809309
:103E7000B3091092B509E091B40981E08E0F8093E7
:103E8000B409F0E0EB54F64F80818093BB00909131
:103E9000B4098091B309981708F47DCF85E8809321
:103EA000BC0009C085EC8093BC001092FE0903C0E1
:103EB00010929109D5DEFF91EF91BF91AF919F9143
:103EC0008F917F916F915F914F913F912F910F90C3
:103ED0000BBE0F900FBE0F901F901895682F8FE3A9
:103EE00099E022CD1F93CF93DF931F92CDB7DEB71A
:103EF000162FFC0190819062692F70E08FE399E0AA
:103F0000498363DD812FEADF4981842FE7DF8FE377
:103F100099E00F90DF91CF911F91C9CDCF93DF939F
:103F2000EC01683008F067E068838FE399E03ADDE0
:103F30004FEF60E0CE01D6DF4FEF61E0CE01DF91C1
:103F4000CF91D0CF1F93CF93DF93EC01162F9881A1
:103F50009062692F70E08FE399E037DD812FBEDF3B
:103F60008FE399E0A4DD6881606270E041E050E099
:103F70008FE399E09ADD8FE399E087DCDF91CF91C1
:103F80001F910895EF92FF920F931F93CF93DF93AA
:103F90001F92CDB7DEB77C01683008F4022F162FD0
:103FA0001770602FC7014983CDDF4981442369F031
:103FB00041E050E060E070E004C0440F551F661F10
:103FC000771F1A95D2F7482B0DC041E050E060E012
:103FD00070E004C0440F551F661F771F1A95D2F773
:103FE00040954823602FC7010F90DF91CF911F911B
:103FF0000F91FF90EF9076CF0F9331E0411130E0B9
:1040000001E020E0432FBEDF0F9108950F930DE0F4
:104010002CE0B8DF0F910895EF92FF920F931F935A
:10402000CF93DF931F92CDB7DEB77C01162F062FFB
:104030000770683010F464E101C065E1C70149838D
:1040400081DF4981442369F041E050E060E070E0A5
:1040500004C0440F551F661F771F0A95D2F7482BDF
:104060000DC041E050E060E070E004C0440F551F17
:10407000661F771F0A95D2F740954823183010F431
:1040800062E101C063E1C7010F90DF91CF911F9101
:104090000F91FF90EF9026CFCF93C62FC770683057
:1040A00010F462E101C063E14DDF90E002C095953C
:1040B0008795CA95E2F78170CF910895CF93DF93EA
:1040C000EC0160E08E8102D381E090E0E1D161E01B
:1040D0008E81FCD281E090E0DBD160E08E81F6D26F
:1040E00084E690E0DF91CF91D3C1EF92FF920F93DE
:1040F0001F93CF93DF938C01C0E0D0E0E62EF12C2C
:10410000B7010C2E02C0759567950A94E2F76170AD
:10411000F801EC0FFD1F8781D9D22196C430D1055B
:1041200079F7C801DF91CF911F910F91FF90EF9028
:10413000C5CFEF92FF920F931F93CF93DF938C0124
:10414000C0E0D0E0E62EF12CB7010C2E02C0759530
:1041500067950A94E2F76170F801EC0FFD1F878103
:10416000B5D22196C830D10579F7C801DF91CF913A
:104170001F910F91FF90EF90A1CF1F93CF93DF93EB
:10418000EC01162F642F8C81A1D28D818F3F11F00D
:1041900060E09CD28F85612F84FF05C0CE01DF9146
:1041A000CF911F91C6CF70E084E0759567958A9591
:1041B000E1F7CE019ADF612FCE01DF91CF911F9100
:1041C00094CF40E0DACF61E0FCDF80ED97E060C1A2
:1041D000443008F043E0FC012389421710F04FEF10
:1041E000420FFC01E40FF11D2489260F2068622F85
:1041F000E8CFFC016089262F2460208B6C60E1CF22
:104200000F931F93CF93DF93EC01423018F08F850B
:1042100088608F874B8B1C8A80E48D8B6E8B70E05F
:10422000605C7F4F6F8B222329F0413019F48F851A
:1042300084608F8761E08C8110D28D818F3F11F077
:1042400061E00BD261E08E8108D200E010E08F8542
:1042500084FF03C088E090E002C084E090E008178B
:1042600019074CF4FE01E00FF11F61E08781F5D1E1
:104270000F5F1F4FECCF80E593EC0AD160E08C819B
:1042800025D260E08E8122D28D818F3F11F060E0D7
:104290001DD26F8564FD16C063E0CE0126DF84E980
:1042A00091E1F6D063E0CE0120DF84E991E1F0D026
:1042B00063E0CE011ADF86E990E0EAD062E0CE0149
:1042C00014DF11C06062CE017CDF84E991E1E0D0AF
:1042D0006F856062CE0175DF86E990E0D9D06F8589
:1042E0006062CE016EDF6F856062CE016ADF84E0BE
:1042F000888BCE017EDFCE0166DF82E0898B66E0AF
:10430000CE01DF91CF911F910F915BCFCF92EF92B2
:104310000F93FC01138212828DEF95E091838083CD
:1043200064838FEF8583468327830087E186C28677
:104330001386148615861686178620E041E060E114
:10434000CF010F91EF90CF905BCF41E016DF81E07E
:1043500090E008951F920F920FB60F9211242F93A1
:104360003F938F939F93AF93BF938091000A909157
:10437000010AA091020AB091030A3091FF0923E0DB
:10438000230F2D3720F40196A11DB11D05C026E88D
:10439000230F0296A11DB11D2093FF098093000AEF
:1043A0009093010AA093020AB093030A8091040A31
:1043B0009091050AA091060AB091070A0196A11DE5
:1043C000B11D8093040A9093050AA093060AB09346
:1043D000070ABF91AF919F918F913F912F910F90BD
:1043E0000FBE0F901F9018952FB7F8946091000A98
:1043F0007091010A8091020A9091030A2FBF0895DB
:104400003FB7F8948091040A9091050AA091060A9A
:10441000B091070A26B5A89B05C02F3F19F0019659
:10442000A11DB11D3FBF6627782F892F9A2F620FDC
:10443000711D811D911D42E0660F771F881F991F16
:104440004A95D1F70895CF92DF92EF92FF92CF93E2
:10445000DF936B017C01D4DFEB01C114D104E104D3
:10446000F10479F0F7D7CCDF6C1B7D0B683E73400D
:10447000A0F381E0C81AD108E108F108C851DC4F67
:10448000ECCFDF91CF91FF90EF90DF90CF90089528
:104490008230910538F0880F991F880F991F059772
:1044A0000197F1F70895789484B5826084BD84B54E
:1044B000816084BD85B5826085BD85B5816085BD1F
:1044C000EEE6F0E0808181608083E1E8F0E0108238
:1044D000808182608083808181608083E0E8F0E079
:1044E000808181608083E1EBF0E080818460808363
:1044F000E0EBF0E0808181608083E1E9F0E08081A1
:1045000082608083808181608083E0E9F0E0808147
:1045100081608083E1EAF0E0808182608083808135
:1045200081608083E0EAF0E0808181608083E1E265
:10453000F1E0808182608083808181608083E0E21D
:10454000F1E0808181608083EAE7F0E0808184602F
:10455000808380818260808380818160808380818C
:10456000806880831092C1000895863308F08653D6
:1045700020917B00982F9870277F922B90937B003F
:10458000877020918C0390E4299F90011124822B45
:1045900080937C0080917A00806480937A0080917F
:1045A0007A0086FDFCCF809178002091790090E020
:1045B000922B089590E0FC013197E231F10508F06B
:1045C0004BC0EE58FF4F85C7809180008F7703C0A6
:1045D000809180008F7D809380000895809180007D
:1045E000877FF9CF84B58F7702C084B58F7D84BD76
:1045F00008958091B0008F7703C08091B0008F7DC7
:104600008093B0000895809190008F7707C08091CB
:1046100090008F7D03C080919000877F80939000F1
:1046200008958091A0008F7707C08091A0008F7DB2
:1046300003C08091A000877F8093A000089580919F
:1046400020018F7707C0809120018F7D03C080916A
:104650002001877F809320010895CF93DF9390E01E
:10466000FC01E25BFE4F2491FC01EC56FE4F84916D
:10467000882349F190E0880F991FFC01E25FFD4F0C
:10468000A591B4918C509E4FFC01C591D4919FB7D8
:10469000611108C0F8948C91209582238C938881B5
:1046A00082230AC0623051F4F8948C91322F3095F5
:1046B00083238C938881822B888304C0F8948C9107
:1046C000822B8C939FBFDF91CF9108950F931F93FF
:1046D000CF93DF931F92CDB7DEB7282F30E0F901DB
:1046E000E85FFE4F8491F901E25BFE4F1491F901FE
:1046F000EC56FE4F04910023C1F0882319F0698322
:1047000059DF6981E02FF0E0EE0FFF1FEC50FE4F04
:10471000A591B4919FB7F8948C91611103C0109545
:10472000812301C0812B8C939FBF0F90DF91CF918C
:104730001F910F910895CF93DF93282F30E0F90157
:10474000E85FFE4F8491F901E25BFE4FD491F901DD
:10475000EC56FE4FC491CC2389F081112BDFEC2F56
:10476000F0E0EE0FFF1FE652FE4FA591B4912C91A1
:104770002D2381E090E021F480E002C080E090E011
:10478000DF91CF910895FC01818D228D90E0805CB6
:104790009F4F821B91098F7399270895FC01918D7A
:1047A000828D981731F0828DE80FF11D858D90E094
:1047B00008958FEF9FEF0895FC01918D828D9817DA
:1047C00061F0828DDF01A80FB11D5D968C91928DF5
:1047D0009F5F9F73928F90E008958FEF9FEF0895F2
:1047E00080E995E2892B39F080E090E0892B19F07F
:1047F00097D1811124C080E090E0892B41F080E0C6
:1048000090E0892B21F00E94000081111BC08BE3F6
:1048100096E2892B39F080E090E0892B19F02BD2B9
:10482000811113C080E090E0892BA1F080E090E03E
:10483000892B81F00E94000081110AC008950E9416
:104840000000D9CF0E940000E2CF0E940000EACF12
:104850000C9400000895FC01848DDF01A80FB11DA8
:10486000A35ABF4F2C91848D90E001968F739927A6
:10487000848FA689B7892C93A089B1898C91806493
:104880008C93938D848D981306C00288F389E02D54
:1048900080818F7D80830895CF93DF93EC01888D95
:1048A0008823C1F0EA89FB89808185FD05C0A8893C
:1048B000B9898C9186FD0EC00FB607FCF5CF8081BB
:1048C00085FFF2CFA889B9898C9185FFEDCFCE0104
:1048D000C2DFE8CFDF91CF910895CF92DF92FF92B0
:1048E0000F931F93CF93DF931F92CDB7DEB76C0169
:1048F00081E0D60158968C9358975B969C915B9774
:104900005C968C915C97981307C05096ED91FC9142
:104910005197808185FD2DC0F601038D10E00F5F5A
:104920001F4F0F731127F02EF601848DF81210C05F
:104930000FB607FCF9CFD6015096ED91FC91519737
:10494000808185FFF1CFC601698385DF6981ECCF66
:10495000838DE80FF11DE35AFF4F6083D6015B960C
:104960000C935B975296ED91FC91539780818062F6
:104970000CC0D6015696ED91FC91579760835096E6
:10498000ED91FC91519780818064808381E090E07B
:104990000F90DF91CF911F910F91FF90DF90CF90FB
:1049A0000895BF92CF92DF92EF92FF92CF93DF9361
:1049B000EC016A017B01B22EE889F98982E08083EB
:1049C000411581EE58076105710599F060E079E0C5
:1049D0008DE390E0A70196013ED5215031094109B0
:1049E00051095695479537952795211580E1380748
:1049F00090F0E889F989108260E874E88EE190E02F
:104A0000A701960128D52150310941095109569530
:104A1000479537952795EC85FD853083EE85FF8595
:104A20002083188EEC89FD89B082EA89FB89808118
:104A300080618083EA89FB89808188608083EA893C
:104A4000FB89808180688083EA89FB8980818F7DF2
:104A50008083DF91CF91FF90EF90DF90CF90BF9058
:104A600008951F920F920FB60F9211240BB60F925A
:104A70002F938F939F93EF93FF93E091180AF091F8
:104A8000190A8081E0911E0AF0911F0A82FD12C06E
:104A900090818091210A8F5F8F732091220A821763
:104AA00051F0E091210AF0E0E85FF54F958F809397
:104AB000210A01C08081FF91EF919F918F912F91E9
:104AC0000F900BBE0F900FBE0F901F9018951F9266
:104AD0000F920FB60F9211240BB60F922F933F93A4
:104AE0004F935F936F937F938F939F93AF93BF93F6
:104AF000EF93FF9388E09AE0AEDEFF91EF91BF91D4
:104B0000AF919F918F917F916F915F914F913F9165
:104B10002F910F900BBE0F900FBE0F901F90189506
:104B200088E09AE030DE21E0892B09F420E0822F32
:104B3000089510920B0A10920A0A88EE93E0A0E002
:104B4000B0E080930C0A90930D0AA0930E0AB093E4
:104B50000F0A85E096E09093090A8093080A85EC95
:104B600090E09093150A8093140A84EC90E090935F
:104B7000170A8093160A80EC90E09093190A8093AC
:104B8000180A81EC90E090931B0A80931A0A82EC39
:104B900090E090931D0A80931C0A86EC90E090931D
:104BA0001F0A80931E0A1092210A1092220A109264
:104BB000230A1092240A08951F920F920FB60F92A3
:104BC00011240BB60F922F938F939F93EF93FF9324
:104BD000E091B50AF091B60A8081E091BB0AF091AC
:104BE000BC0A82FD12C090818091BE0A8F5F8F73D4
:104BF0002091BF0A821751F0E091BE0AF0E0EB5518
:104C0000F54F958F8093BE0A01C08081FF91EF918F
:104C10009F918F912F910F900BBE0F900FBE0F9011
:104C20001F9018951F920F920FB60F9211240BB67A
:104C30000F922F933F934F935F936F937F938F9335
:104C40009F93AF93BF93EF93FF9385EA9AE003DEC0
:104C5000FF91EF91BF91AF919F918F917F916F9154
:104C60005F914F913F912F910F900BBE0F900FBE10
:104C70000F901F90189585EA9AE085DD21E0892B39
:104C800009F420E0822F08951092A80A1092A70A32
:104C900088EE93E0A0E0B0E08093A90A9093AA0A7E
:104CA000A093AB0AB093AC0A85E096E09093A60A75
:104CB0008093A50A85ED90E09093B20A8093B10AA3
:104CC00084ED90E09093B40A8093B30A80ED90E075
:104CD0009093B60A8093B50A81ED90E09093B80A5C
:104CE0008093B70A82ED90E09093BA0A8093B90A54
:104CF00086ED90E09093BC0A8093BB0A1092BE0AA6
:104D00001092BF0A1092C00A1092C10A0895CF9261
:104D1000DF92EF92FF920F931F93CF93DF937C016B
:104D20006A01EB0100E010E00C151D0571F06991BE
:104D3000D701ED91FC910190F081E02DC70119950B
:104D4000892B19F00F5F1F4FEFCFC801DF91CF9173
:104D50001F910F91FF90EF90DF90CF900895611514
:104D6000710581F0DB010D900020E9F7AD014150A4
:104D70005109461B570BDC01ED91FC910280F38138
:104D8000E02D199480E090E00895DC01ED91FC9114
:104D9000DB0114964D915C9115976D917C91028089
:104DA000F381E02D1994DBCFDC01ED91FC910190B2
:104DB000F081E02D199461E176E0D1CF0F931F933C
:104DC000CF93DF93EC01E1DF8C01CE01F4DF800FA4
:104DD000911FDF91CF911F910F9108950F931F9312
:104DE000CF93DF93EC01BBDF8C01CE01E4DF800FBA
:104DF000911FDF91CF911F910F9108958F929F92F4
:104E0000AF92BF92CF92DF92EF92FF920F931F93D8
:104E1000CF93DF93CDB7DEB7A1970FB6F894DEBF7F
:104E20000FBECDBF7C01C42EE52FCB01D22E19A21F
:104E300021E02D1510F02AE0D22E8E010F5D1F4FBC
:104E40008D2C912CA12CB12C6C2D7E2FA5019401C1
:104E500002D38C2DD29E80191124015011098A3061
:104E600014F4805D01C0895CF8018083211531054F
:104E70004105510521F0C22EE32FCA01E5CFB8014B
:104E8000C7016DDFA1960FB6F894DEBF0FBECDBF90
:104E9000DF91CF911F910F91FF90EF90DF90CF9016
:104EA000BF90AF909F908F900895CF92DF92EF9236
:104EB000FF920F931F93CF93DF93EC016A017B0165
:104EC0002115310579F4E881F9810190F081E02D17
:104ED000642FDF91CF911F910F91FF90EF90DF90A2
:104EE000CF9019942A303105D9F477FF18C06DE2BC
:104EF0005BDF8C0144275527BA014C195D096E0907
:104F00007F092AE0CE017ADF800F911FDF91CF91D8
:104F10001F910F91FF90EF90DF90CF9008952AE0BE
:104F2000B701A601CE01DF91CF911F910F91FF90A4
:104F3000EF90DF90CF9062CF0F931F93CF93DF93CB
:104F4000EC01B3DF8C01CE0136DF800F911FDF91C2
:104F5000CF911F910F9108952115310541F4DC0186
:104F6000ED91FC910190F081E02D642F199446CFD2
:104F70000F931F93CF93DF93EC019A01462F50E0DC
:104F800060E070E0E9DF8C01CE0115DF800F911F3A
:104F9000DF91CF911F910F910895611571058105E2
:104FA000910509F036C40895CF93DF9300D01F9286
:104FB000CDB7DEB79B01AC01611571058105910587
:104FC00059F069833A834B835C8320D429813A81E9
:104FD0004B815C8162D203C060E070E0CB010F9036
:104FE0000F900F900F90DF91CF910895CF92DF92A5
:104FF000EF92FF926B017C0162177307840795079C
:105000005CF4CA01B9016C197D098E099F09CCDFD6
:105010006C0D7D1D8E1D9F1DFF90EF90DF90CF903A
:105020000895FC018081918118C3CF93DF93EC0137
:1050300088819981009709F010D3198218821D8206
:105040001C821B821A82DF91CF9108950F931F93C8
:10505000CF93DF93EC018B016F5F7F4F8881998144
:10506000E1D3009731F0998388831B830A8381E021
:1050700001C080E0DF91CF911F910F910895CF93F0
:10508000DF93EC0188819981892B29F08A819B81AA
:105090008617970758F4CE01D9DF882341F08C8119
:1050A0009D81892B19F4E881F981108281E0DF91DB
:1050B000CF910895EF92FF920F931F93CF93DF93B9
:1050C000EC017B018A01BA01DADF811103C0CE0154
:1050D000ACDF06C01D830C83B70188819981BED4E3
:1050E000CE01DF91CF911F910F91FF90EF90089526
:1050F000FC011182108213821282158214826115C2
:10510000710551F0FB0101900020E9F7AF0141501A
:105110005109461B570BCECF08950F931F93CF9382
:10512000DF938C01EB01FC0180819181009789F074
:10513000428153812C813D814217530748F0688199
:1051400079818CD48C819D81F8019583848312C0F0
:1051500084D288819981F801918380838A819B819F
:10516000938382838C819D819583848319821882A5
:105170001B821A821D821C82DF91CF911F910F9199
:105180000895CF93DF93EC01FB018617970751F049
:10519000608171816115710521F0448155818ADF3B
:1051A00001C043DFCE01DF91CF910895FC01118250
:1051B00010821382128215821482E3CFCF93DF9381
:1051C000EC018617970709F0A8DFCE01DF91CF9198
:1051D0000895CF93DF93EC018617970709F09DDFC1
:1051E000CE01DF91CF910895CF93DF93EC0161154C
:1051F000710559F0FB0101900020E9F7AF01415022
:105200005109461B570B56DF01C00FDFCE01DF915E
:10521000CF910895CF93DF931F921F92CDB7DEB742
:10522000FC0111821082138212821582148269831A
:105230001A82BE016F5F7F4FD7DF0F900F90DF9113
:10524000CF9108950F931F93CF93DF93CDB7DEB720
:1052500029970FB6F894DEBF0FBECDBF8C01862F05
:10526000F80111821082138212821582148250E09A
:10527000BE016F5F7F4F90E021D4BE016F5F7F4F13
:10528000C801B2DF29960FB6F894DEBF0FBECDBFBE
:10529000DF91CF911F910F9108950F931F93CF939B
:1052A000DF93CDB7DEB762970FB6F894DEBF0FBEBF
:1052B000CDBF8C01CB01F8011182108213821282C2
:1052C0001582148250E0BE016F5F7F4FCED3BE01C6
:1052D0006F5F7F4FC80188DF62960FB6F894DEBF1C
:1052E0000FBECDBFDF91CF911F910F910895EF9227
:1052F000FF920F931F93CF93DF93EC017B010C81FF
:105300001D816115710511F480E014C0411551052E
:1053100081F0040F151FB801B2DE8823A9F328819C
:1053200039818C819D81B701820F931F97D31D8393
:105330000C8381E0DF91CF911F910F91FF90EF904F
:105340000895FB014481558160817181D0CFCF9355
:10535000DF931F921F92CDB7DEB769831A8241E0B7
:1053600050E0BE016F5F7F4FC2DF0F900F90DF9163
:10537000CF910895CF93DF93EC01FB0144815581D8
:1053800060817181B4DF811102C0CE014EDECE0199
:10539000DF91CF910895CF93DF93EC0161157105F3
:1053A00061F0FB0101900020E9F7AF014150510984
:1053B000461B570B9CDF811102C0CE0136DECE01A9
:1053C000DF91CF910895FC0124813581232B31F4A5
:1053D00021E06115710599F0FB0108C0FC01808195
:1053E00091816115710531F421E0FC0180818823F0
:1053F00031F004C02AD321E0892B09F020E0822F6C
:105400000895FC01848195816817790720F48081D3
:105410009181009729F41092420B82E49BE0089559
:10542000860F971F0895FC0180819181009709F0F4
:10543000DDC260E070E0CB010895089534D8FDDF4F
:105440000E94D615C0EFD3E20E94151A2097E1F30F
:10545000C7D9FACF0895A1E21A2EAA1BBB1BFD01E2
:105460000DC0AA1FBB1FEE1FFF1FA217B307E40743
:10547000F50720F0A21BB30BE40BF50B661F771F9B
:10548000881F991F1A9469F760957095809590957B
:105490009B01AC01BD01CF010895052E97FB16F4C9
:1054A00000940FD057FD05D0D6DF07FC02D046F49C
:1054B00008C050954095309521953F4F4F4F5F4F15
:1054C000089590958095709561957F4F8F4F9F4F70
:1054D0000895EE0FFF1F0590F491E02D199416D05A
:1054E000A59F900DB49F900DA49F800D911D112438
:1054F00008950790F691E02D19942A153B054C0567
:105500005D056E057F05800791070895A29FB00194
:10551000B39FC001A39F700D811D1124911DB29FE7
:10552000700D811D1124911D0895CF93DF9382305A
:10553000910510F482E090E0E091450BF091460B6C
:1055400020E030E0A0E0B0E0309739F140815181B7
:1055500048175907B8F04817590771F482819381A9
:10556000109729F013969C938E9312972CC09093CA
:10557000460B8093450B27C02115310531F04217AA
:10558000530718F0A901DB0101C0EF019A01BD0129
:10559000DF010280F381E02DD7CF21153105F9F02D
:1055A000281B390B2430310580F48A819B816115D9
:1055B000710521F0FB019383828304C09093460B15
:1055C0008093450BFE01329644C0FE01E20FF31FAB
:1055D0008193919322503109398328833AC02091D5
:1055E000430B3091440B232B41F420910202309164
:1055F00003023093440B2093430B2091000230911F
:1056000001022115310541F42DB73EB74091040246
:1056100050910502241B350BE091430BF091440B94
:10562000E217F307A0F42E1B3F0B2817390778F079
:10563000AC014E5F5F4F2417350748F04E0F5F1FD8
:105640005093440B4093430B8193919302C0E0E04D
:10565000F0E0CF01DF91CF910895CF93DF930097D2
:1056600009F487C0FC01329713821282C091450B66
:10567000D091460B209781F420813181280F391F6A
:105680008091430B9091440B8217930779F5F09327
:10569000440BE093430B6DC0DE0120E030E0AE1719
:1056A000BF0750F412964D915C9113979D014115DF
:1056B000510509F1DA01F3CFB383A283408151810F
:1056C000840F951F8A179B0771F48D919C911197F8
:1056D000840F951F02969183808312968D919C91E1
:1056E0001397938382832115310529F4F093460B98
:1056F000E093450B3EC0D9011396FC93EE931297AD
:105700004D915D91A40FB51FEA17FB0779F48081D5
:105710009181840F951F0296D90111969C938E93C7
:105720008281938113969C938E931297E0E0F0E030
:105730008A819B81009719F0FE01EC01F9CFCE011F
:10574000029628813981820F931F2091430B30915B
:10575000440B2817390769F4309729F41092460B47
:105760001092450B02C013821282D093440BC09357
:10577000430BDF91CF9108958F929F92AF92BF928A
:10578000CF92DF92EF92FF92CF93DF93EC0168818B
:1057900079818A819B81611571058105910521F4CB
:1057A00064E279ED8BE597E02DE133EF41E050E0E5
:1057B00074DE49015A019B01AC01A7EAB1E48FDE16
:1057C0006B017C01ACEEB4EFA5019401ACD1C60E27
:1057D000D71EE81EF91EF7FE06C081E0C81AD108E0
:1057E000E10880E8F80AC882D982EA82FB82C70110
:1057F000B6019F77DF91CF91FF90EF90DF90CF9030
:10580000BF90AF909F908F900895B6CF86E092E0C2
:10581000B3CF6093060270930702809308029093BF
:10582000090208956F927F928F929F92AF92BF92DA
:10583000CF92DF92EF92FF920F931F93CF93DF935C
:10584000EC01CB01209779F4DF91CF911F910F915B
:10585000FF90EF90DF90CF90BF90AF909F908F9090
:105860007F906F9062CEFE01E60FF71F9E012250DF
:105870003109E217F30708F4A8C0D9010D911C9172
:10588000119706171707B0F00530110508F49BC0F3
:10589000A801445051094617570708F494C0025014
:1058A0001109061B170B019311936D937C93CF0184
:1058B000D4DE89C05B01A01AB10A4E01800E911E90
:1058C000A091450BB091460B612C712C60E070E00B
:1058D000109709F449C0A815B905C9F5ED90FC90D9
:1058E0001197670142E0C40ED11CCA14DB0478F1A1
:1058F00047018A189B08640142E0C40ED11C12962D
:10590000BC9012971396AC91B5E0CB16D10440F041
:10591000B282A38391828082D9018D939C9309C026
:105920000E5F1F4F0E0D1F1DF90111830083EB2D1C
:10593000FA2F6115710531F0DB011396FC93EE939C
:10594000129741C0F093460BE093450B3CC06D911C
:105950007C9111976616770608F43B01BD011296FB
:105960000D90BC91A02DB4CF6091430B7091440B6E
:1059700068157905E9F468167906D0F440910002BB
:10598000509101024115510541F44DB75EB7609148
:10599000040270910502461B570BE417F507A8F4A3
:1059A000F093440BE093430BF901918380830BC088
:1059B000BCDD7C01009749F0A801BE013DD0CE01BD
:1059C0004CDEC70104C0CE0102C080E090E0DF9150
:1059D000CF911F910F91FF90EF90DF90CF90BF90EC
:1059E000AF909F908F907F906F9008951F93FC01D0
:1059F00099278827BC01E89411911032E9F31930F6
:105A000010F01E30C8F31B3249F01D3241F4689487
:105A100005C03FD0610F711D811D911D1191105363
:105A20001A30B8F33EF490958095709561957F4F4C
:105A30008F4F9F4F1F910895FB01DC0102C0019021
:105A40000D9241505040D8F70895FB01DC018D9133
:105A5000019080190110D9F3990B0895FB01DC0125
:105A600001900D920020E1F708954532510518F498
:105A7000423008F004C0FB011082CB010895BB271F
:105A80004A3031F4992322F4BDE2909581959F4FDD
:105A900020C0592F482F372F262F660F771F881FBA
:105AA000991F660F771F881F991F620F731F841F2E
:105AB000951F660F771F881F991F0895453251055E
:105AC00018F4423008F004C0FB011082CB010895A5
:105AD000BB27FB015527AA27880F991FAA1FA417C8
